{
  "contractName": "DonorContract",
  "abi": [
    {
      "inputs": [
        {
          "internalType": "string",
          "name": "_fullname",
          "type": "string"
        },
        {
          "internalType": "uint256",
          "name": "_age",
          "type": "uint256"
        },
        {
          "internalType": "string",
          "name": "_gender",
          "type": "string"
        },
        {
          "internalType": "string",
          "name": "_medical_id",
          "type": "string"
        },
        {
          "internalType": "string",
          "name": "_blood_type",
          "type": "string"
        },
        {
          "internalType": "string[]",
          "name": "_organ",
          "type": "string[]"
        },
        {
          "internalType": "uint256",
          "name": "_weight",
          "type": "uint256"
        },
        {
          "internalType": "uint256",
          "name": "_height",
          "type": "uint256"
        }
      ],
      "name": "setPledge",
      "outputs": [],
      "stateMutability": "nonpayable",
      "type": "function"
    },
    {
      "inputs": [
        {
          "internalType": "string",
          "name": "_fullname",
          "type": "string"
        },
        {
          "internalType": "uint256",
          "name": "_age",
          "type": "uint256"
        },
        {
          "internalType": "string",
          "name": "_gender",
          "type": "string"
        },
        {
          "internalType": "string",
          "name": "_medical_id",
          "type": "string"
        },
        {
          "internalType": "string",
          "name": "_blood_type",
          "type": "string"
        },
        {
          "internalType": "string[]",
          "name": "_organ",
          "type": "string[]"
        },
        {
          "internalType": "uint256",
          "name": "_weight",
          "type": "uint256"
        },
        {
          "internalType": "uint256",
          "name": "_height",
          "type": "uint256"
        }
      ],
      "name": "setDonors",
      "outputs": [],
      "stateMutability": "nonpayable",
      "type": "function"
    },
    {
      "inputs": [
        {
          "internalType": "string",
          "name": "_fullname",
          "type": "string"
        },
        {
          "internalType": "uint256",
          "name": "_age",
          "type": "uint256"
        },
        {
          "internalType": "string",
          "name": "_gender",
          "type": "string"
        },
        {
          "internalType": "string",
          "name": "_medical_id",
          "type": "string"
        },
        {
          "internalType": "string",
          "name": "_blood_type",
          "type": "string"
        },
        {
          "internalType": "string[]",
          "name": "_organ",
          "type": "string[]"
        },
        {
          "internalType": "uint256",
          "name": "_weight",
          "type": "uint256"
        },
        {
          "internalType": "uint256",
          "name": "_height",
          "type": "uint256"
        }
      ],
      "name": "setPatients",
      "outputs": [],
      "stateMutability": "nonpayable",
      "type": "function"
    },
    {
      "inputs": [
        {
          "internalType": "string",
          "name": "_medical_id",
          "type": "string"
        }
      ],
      "name": "getPledge",
      "outputs": [
        {
          "internalType": "string",
          "name": "",
          "type": "string"
        },
        {
          "internalType": "uint256",
          "name": "",
          "type": "uint256"
        },
        {
          "internalType": "string",
          "name": "",
          "type": "string"
        },
        {
          "internalType": "string",
          "name": "",
          "type": "string"
        },
        {
          "internalType": "string[]",
          "name": "",
          "type": "string[]"
        },
        {
          "internalType": "uint256",
          "name": "",
          "type": "uint256"
        },
        {
          "internalType": "uint256",
          "name": "",
          "type": "uint256"
        }
      ],
      "stateMutability": "view",
      "type": "function",
      "constant": true
    },
    {
      "inputs": [
        {
          "internalType": "string",
          "name": "_medical_id",
          "type": "string"
        }
      ],
      "name": "getDonor",
      "outputs": [
        {
          "internalType": "string",
          "name": "",
          "type": "string"
        },
        {
          "internalType": "uint256",
          "name": "",
          "type": "uint256"
        },
        {
          "internalType": "string",
          "name": "",
          "type": "string"
        },
        {
          "internalType": "string",
          "name": "",
          "type": "string"
        },
        {
          "internalType": "string[]",
          "name": "",
          "type": "string[]"
        },
        {
          "internalType": "uint256",
          "name": "",
          "type": "uint256"
        },
        {
          "internalType": "uint256",
          "name": "",
          "type": "uint256"
        }
      ],
      "stateMutability": "view",
      "type": "function",
      "constant": true
    },
    {
      "inputs": [
        {
          "internalType": "string",
          "name": "_medical_id",
          "type": "string"
        }
      ],
      "name": "getPatient",
      "outputs": [
        {
          "internalType": "string",
          "name": "",
          "type": "string"
        },
        {
          "internalType": "uint256",
          "name": "",
          "type": "uint256"
        },
        {
          "internalType": "string",
          "name": "",
          "type": "string"
        },
        {
          "internalType": "string",
          "name": "",
          "type": "string"
        },
        {
          "internalType": "string[]",
          "name": "",
          "type": "string[]"
        },
        {
          "internalType": "uint256",
          "name": "",
          "type": "uint256"
        },
        {
          "internalType": "uint256",
          "name": "",
          "type": "uint256"
        }
      ],
      "stateMutability": "view",
      "type": "function",
      "constant": true
    },
    {
      "inputs": [
        {
          "internalType": "string",
          "name": "_medical_id",
          "type": "string"
        }
      ],
      "name": "validatePledge",
      "outputs": [
        {
          "internalType": "bool",
          "name": "",
          "type": "bool"
        }
      ],
      "stateMutability": "view",
      "type": "function",
      "constant": true
    },
    {
      "inputs": [
        {
          "internalType": "string",
          "name": "_medical_id",
          "type": "string"
        }
      ],
      "name": "validateDonor",
      "outputs": [
        {
          "internalType": "bool",
          "name": "",
          "type": "bool"
        }
      ],
      "stateMutability": "view",
      "type": "function",
      "constant": true
    },
    {
      "inputs": [
        {
          "internalType": "string",
          "name": "_medical_id",
          "type": "string"
        }
      ],
      "name": "validatePatient",
      "outputs": [
        {
          "internalType": "bool",
          "name": "",
          "type": "bool"
        }
      ],
      "stateMutability": "view",
      "type": "function",
      "constant": true
    },
    {
      "inputs": [],
      "name": "getAllPledgeIDs",
      "outputs": [
        {
          "internalType": "string[]",
          "name": "",
          "type": "string[]"
        }
      ],
      "stateMutability": "view",
      "type": "function",
      "constant": true
    },
    {
      "inputs": [],
      "name": "getAllDonorIDs",
      "outputs": [
        {
          "internalType": "string[]",
          "name": "",
          "type": "string[]"
        }
      ],
      "stateMutability": "view",
      "type": "function",
      "constant": true
    },
    {
      "inputs": [],
      "name": "getAllPatientIDs",
      "outputs": [
        {
          "internalType": "string[]",
          "name": "",
          "type": "string[]"
        }
      ],
      "stateMutability": "view",
      "type": "function",
      "constant": true
    },
    {
      "inputs": [],
      "name": "getCountOfPledges",
      "outputs": [
        {
          "internalType": "uint256",
          "name": "",
          "type": "uint256"
        }
      ],
      "stateMutability": "view",
      "type": "function",
      "constant": true
    },
    {
      "inputs": [],
      "name": "getCountOfDonors",
      "outputs": [
        {
          "internalType": "uint256",
          "name": "",
          "type": "uint256"
        }
      ],
      "stateMutability": "view",
      "type": "function",
      "constant": true
    },
    {
      "inputs": [],
      "name": "getCountOfPatients",
      "outputs": [
        {
          "internalType": "uint256",
          "name": "",
          "type": "uint256"
        }
      ],
      "stateMutability": "view",
      "type": "function",
      "constant": true
    }
  ],
  "bytecode": "0x608060405234801561001057600080fd5b5061226e806100206000396000f3fe608060405234801561001057600080fd5b50600436106100f55760003560e01c80639d644dde11610097578063d0544a8d11610066578063d0544a8d14610294578063d0e0579b146102b2578063e79a7a2e146102ce578063ef1215c314610304576100f5565b80639d644dde14610206578063b388561014610222578063b5d0f00414610240578063b5dd29681461025e576100f5565b80635f6b957d116100d35780635f6b957d1461016a578063778b5f251461019a57806389d53d00146101b85780639b811209146101d6576100f5565b806325ead195146100fa57806331dad7321461011857806336aa555e1461014e575b600080fd5b610102610334565b60405161010f9190611b92565b60405180910390f35b610132600480360381019061012d9190611cfd565b61040d565b6040516101459796959493929190611da9565b60405180910390f35b61016860048036038101906101639190611f46565b610793565b005b610184600480360381019061017f9190611cfd565b6109d2565b60405161019191906120a3565b60405180910390f35b6101a2610a5b565b6040516101af9190611b92565b60405180910390f35b6101c0610b34565b6040516101cd91906120be565b60405180910390f35b6101f060048036038101906101eb9190611cfd565b610b41565b6040516101fd91906120a3565b60405180910390f35b610220600480360381019061021b9190611f46565b610bca565b005b61022a610e09565b60405161023791906120be565b60405180910390f35b610248610e16565b60405161025591906120be565b60405180910390f35b61027860048036038101906102739190611cfd565b610e23565b60405161028b9796959493929190611da9565b60405180910390f35b61029c6111a9565b6040516102a99190611b92565b60405180910390f35b6102cc60048036038101906102c79190611f46565b611282565b005b6102e860048036038101906102e39190611cfd565b6114c1565b6040516102fb9796959493929190611da9565b60405180910390f35b61031e60048036038101906103199190611cfd565b611847565b60405161032b91906120a3565b60405180910390f35b60606003805480602002602001604051908101604052809291908181526020016000905b8282101561040457838290600052602060002001805461037790612108565b80601f01602080910402602001604051908101604052809291908181526020018280546103a390612108565b80156103f05780601f106103c5576101008083540402835291602001916103f0565b820191906000526020600020905b8154815290600101906020018083116103d357829003601f168201915b505050505081526020019060010190610358565b50505050905090565b6060600060608060606000806001886040516104299190612176565b908152602001604051809103902060000160018960405161044a9190612176565b90815260200160405180910390206001015460018a60405161046c9190612176565b908152602001604051809103902060020160018b60405161048d9190612176565b908152602001604051809103902060040160018c6040516104ae9190612176565b908152602001604051809103902060050160018d6040516104cf9190612176565b90815260200160405180910390206006015460018e6040516104f19190612176565b90815260200160405180910390206007015486805461050f90612108565b80601f016020809104026020016040519081016040528092919081815260200182805461053b90612108565b80156105885780601f1061055d57610100808354040283529160200191610588565b820191906000526020600020905b81548152906001019060200180831161056b57829003601f168201915b5050505050965084805461059b90612108565b80601f01602080910402602001604051908101604052809291908181526020018280546105c790612108565b80156106145780601f106105e957610100808354040283529160200191610614565b820191906000526020600020905b8154815290600101906020018083116105f757829003601f168201915b5050505050945083805461062790612108565b80601f016020809104026020016040519081016040528092919081815260200182805461065390612108565b80156106a05780601f10610675576101008083540402835291602001916106a0565b820191906000526020600020905b81548152906001019060200180831161068357829003601f168201915b5050505050935082805480602002602001604051908101604052809291908181526020016000905b828210156107745783829060005260206000200180546106e790612108565b80601f016020809104026020016040519081016040528092919081815260200182805461071390612108565b80156107605780601f1061073557610100808354040283529160200191610760565b820191906000526020600020905b81548152906001019060200180831161074357829003601f168201915b5050505050815260200190600101906106c8565b5050505092509650965096509650965096509650919395979092949650565b846040516020016107a49190612176565b604051602081830303815290604052805190602001206001866040516107ca9190612176565b90815260200160405180910390206003016040516020016107eb9190612221565b60405160208183030381529060405280519060200120141561080c57600080fd5b8760018660405161081d9190612176565b908152602001604051809103902060000190805190602001906108419291906118d0565b50866001866040516108539190612176565b908152602001604051809103902060010181905550856001866040516108799190612176565b9081526020016040518091039020600201908051906020019061089d9291906118d0565b50846001866040516108af9190612176565b908152602001604051809103902060030190805190602001906108d39291906118d0565b50836001866040516108e59190612176565b908152602001604051809103902060040190805190602001906109099291906118d0565b508260018660405161091b9190612176565b9081526020016040518091039020600501908051906020019061093f929190611956565b50816001866040516109519190612176565b908152602001604051809103902060060181905550806001866040516109779190612176565b9081526020016040518091039020600701819055506004859080600181540180825580915050600190039060005260206000200160009091909190915090805190602001906109c79291906118d0565b505050505050505050565b6000816040516020016109e59190612176565b60405160208183030381529060405280519060200120600083604051610a0b9190612176565b9081526020016040518091039020600301604051602001610a2c9190612221565b604051602081830303815290604052805190602001201415610a515760019050610a56565b600090505b919050565b60606004805480602002602001604051908101604052809291908181526020016000905b82821015610b2b578382906000526020600020018054610a9e90612108565b80601f0160208091040260200160405190810160405280929190818152602001828054610aca90612108565b8015610b175780601f10610aec57610100808354040283529160200191610b17565b820191906000526020600020905b815481529060010190602001808311610afa57829003601f168201915b505050505081526020019060010190610a7f565b50505050905090565b6000600480549050905090565b600081604051602001610b549190612176565b60405160208183030381529060405280519060200120600183604051610b7a9190612176565b9081526020016040518091039020600301604051602001610b9b9190612221565b604051602081830303815290604052805190602001201415610bc05760019050610bc5565b600090505b919050565b84604051602001610bdb9190612176565b60405160208183030381529060405280519060200120600086604051610c019190612176565b9081526020016040518091039020600301604051602001610c229190612221565b604051602081830303815290604052805190602001201415610c4357600080fd5b87600086604051610c549190612176565b90815260200160405180910390206000019080519060200190610c789291906118d0565b5086600086604051610c8a9190612176565b90815260200160405180910390206001018190555085600086604051610cb09190612176565b90815260200160405180910390206002019080519060200190610cd49291906118d0565b5084600086604051610ce69190612176565b90815260200160405180910390206003019080519060200190610d0a9291906118d0565b5083600086604051610d1c9190612176565b90815260200160405180910390206004019080519060200190610d409291906118d0565b5082600086604051610d529190612176565b90815260200160405180910390206005019080519060200190610d76929190611956565b5081600086604051610d889190612176565b90815260200160405180910390206006018190555080600086604051610dae9190612176565b908152602001604051809103902060070181905550600385908060018154018082558091505060019003906000526020600020016000909190919091509080519060200190610dfe9291906118d0565b505050505050505050565b6000600580549050905090565b6000600380549050905090565b606060006060806060600080600088604051610e3f9190612176565b9081526020016040518091039020600001600089604051610e609190612176565b90815260200160405180910390206001015460008a604051610e829190612176565b908152602001604051809103902060020160008b604051610ea39190612176565b908152602001604051809103902060040160008c604051610ec49190612176565b908152602001604051809103902060050160008d604051610ee59190612176565b90815260200160405180910390206006015460008e604051610f079190612176565b908152602001604051809103902060070154868054610f2590612108565b80601f0160208091040260200160405190810160405280929190818152602001828054610f5190612108565b8015610f9e5780601f10610f7357610100808354040283529160200191610f9e565b820191906000526020600020905b815481529060010190602001808311610f8157829003601f168201915b50505050509650848054610fb190612108565b80601f0160208091040260200160405190810160405280929190818152602001828054610fdd90612108565b801561102a5780601f10610fff5761010080835404028352916020019161102a565b820191906000526020600020905b81548152906001019060200180831161100d57829003601f168201915b5050505050945083805461103d90612108565b80601f016020809104026020016040519081016040528092919081815260200182805461106990612108565b80156110b65780601f1061108b576101008083540402835291602001916110b6565b820191906000526020600020905b81548152906001019060200180831161109957829003601f168201915b5050505050935082805480602002602001604051908101604052809291908181526020016000905b8282101561118a5783829060005260206000200180546110fd90612108565b80601f016020809104026020016040519081016040528092919081815260200182805461112990612108565b80156111765780601f1061114b57610100808354040283529160200191611176565b820191906000526020600020905b81548152906001019060200180831161115957829003601f168201915b5050505050815260200190600101906110de565b5050505092509650965096509650965096509650919395979092949650565b60606005805480602002602001604051908101604052809291908181526020016000905b828210156112795783829060005260206000200180546111ec90612108565b80601f016020809104026020016040519081016040528092919081815260200182805461121890612108565b80156112655780601f1061123a57610100808354040283529160200191611265565b820191906000526020600020905b81548152906001019060200180831161124857829003601f168201915b5050505050815260200190600101906111cd565b50505050905090565b846040516020016112939190612176565b604051602081830303815290604052805190602001206001866040516112b99190612176565b90815260200160405180910390206003016040516020016112da9190612221565b6040516020818303038152906040528051906020012014156112fb57600080fd5b8760028660405161130c9190612176565b908152602001604051809103902060000190805190602001906113309291906118d0565b50866002866040516113429190612176565b908152602001604051809103902060010181905550856002866040516113689190612176565b9081526020016040518091039020600201908051906020019061138c9291906118d0565b508460028660405161139e9190612176565b908152602001604051809103902060030190805190602001906113c29291906118d0565b50836002866040516113d49190612176565b908152602001604051809103902060040190805190602001906113f89291906118d0565b508260028660405161140a9190612176565b9081526020016040518091039020600501908051906020019061142e929190611956565b50816002866040516114409190612176565b908152602001604051809103902060060181905550806002866040516114669190612176565b9081526020016040518091039020600701819055506005859080600181540180825580915050600190039060005260206000200160009091909190915090805190602001906114b69291906118d0565b505050505050505050565b6060600060608060606000806002886040516114dd9190612176565b90815260200160405180910390206000016002896040516114fe9190612176565b90815260200160405180910390206001015460028a6040516115209190612176565b908152602001604051809103902060020160028b6040516115419190612176565b908152602001604051809103902060040160028c6040516115629190612176565b908152602001604051809103902060050160028d6040516115839190612176565b90815260200160405180910390206006015460028e6040516115a59190612176565b9081526020016040518091039020600701548680546115c390612108565b80601f01602080910402602001604051908101604052809291908181526020018280546115ef90612108565b801561163c5780601f106116115761010080835404028352916020019161163c565b820191906000526020600020905b81548152906001019060200180831161161f57829003601f168201915b5050505050965084805461164f90612108565b80601f016020809104026020016040519081016040528092919081815260200182805461167b90612108565b80156116c85780601f1061169d576101008083540402835291602001916116c8565b820191906000526020600020905b8154815290600101906020018083116116ab57829003601f168201915b505050505094508380546116db90612108565b80601f016020809104026020016040519081016040528092919081815260200182805461170790612108565b80156117545780601f1061172957610100808354040283529160200191611754565b820191906000526020600020905b81548152906001019060200180831161173757829003601f168201915b5050505050935082805480602002602001604051908101604052809291908181526020016000905b8282101561182857838290600052602060002001805461179b90612108565b80601f01602080910402602001604051908101604052809291908181526020018280546117c790612108565b80156118145780601f106117e957610100808354040283529160200191611814565b820191906000526020600020905b8154815290600101906020018083116117f757829003601f168201915b50505050508152602001906001019061177c565b5050505092509650965096509650965096509650919395979092949650565b60008160405160200161185a9190612176565b604051602081830303815290604052805190602001206002836040516118809190612176565b90815260200160405180910390206003016040516020016118a19190612221565b6040516020818303038152906040528051906020012014156118c657600190506118cb565b600090505b919050565b8280546118dc90612108565b90600052602060002090601f0160209004810192826118fe5760008555611945565b82601f1061191757805160ff1916838001178555611945565b82800160010185558215611945579182015b82811115611944578251825591602001919060010190611929565b5b50905061195291906119b6565b5090565b8280548282559060005260206000209081019282156119a5579160200282015b828111156119a45782518290805190602001906119949291906118d0565b5091602001919060010190611976565b5b5090506119b291906119d3565b5090565b5b808211156119cf5760008160009055506001016119b7565b5090565b5b808211156119f357600081816119ea91906119f7565b506001016119d4565b5090565b508054611a0390612108565b6000825580601f10611a155750611a34565b601f016020900490600052602060002090810190611a3391906119b6565b5b50565b600081519050919050565b600082825260208201905092915050565b6000819050602082019050919050565b600081519050919050565b600082825260208201905092915050565b60005b83811015611a9d578082015181840152602081019050611a82565b83811115611aac576000848401525b50505050565b6000601f19601f8301169050919050565b6000611ace82611a63565b611ad88185611a6e565b9350611ae8818560208601611a7f565b611af181611ab2565b840191505092915050565b6000611b088383611ac3565b905092915050565b6000602082019050919050565b6000611b2882611a37565b611b328185611a42565b935083602082028501611b4485611a53565b8060005b85811015611b805784840389528151611b618582611afc565b9450611b6c83611b10565b925060208a01995050600181019050611b48565b50829750879550505050505092915050565b60006020820190508181036000830152611bac8184611b1d565b905092915050565b6000604051905090565b600080fd5b600080fd5b600080fd5b600080fd5b7f4e487b7100000000000000000000000000000000000000000000000000000000600052604160045260246000fd5b611c0a82611ab2565b810181811067ffffffffffffffff82111715611c2957611c28611bd2565b5b80604052505050565b6000611c3c611bb4565b9050611c488282611c01565b919050565b600067ffffffffffffffff821115611c6857611c67611bd2565b5b611c7182611ab2565b9050602081019050919050565b82818337600083830152505050565b6000611ca0611c9b84611c4d565b611c32565b905082815260208101848484011115611cbc57611cbb611bcd565b5b611cc7848285611c7e565b509392505050565b600082601f830112611ce457611ce3611bc8565b5b8135611cf4848260208601611c8d565b91505092915050565b600060208284031215611d1357611d12611bbe565b5b600082013567ffffffffffffffff811115611d3157611d30611bc3565b5b611d3d84828501611ccf565b91505092915050565b600082825260208201905092915050565b6000611d6282611a63565b611d6c8185611d46565b9350611d7c818560208601611a7f565b611d8581611ab2565b840191505092915050565b6000819050919050565b611da381611d90565b82525050565b600060e0820190508181036000830152611dc3818a611d57565b9050611dd26020830189611d9a565b8181036040830152611de48188611d57565b90508181036060830152611df88187611d57565b90508181036080830152611e0c8186611b1d565b9050611e1b60a0830185611d9a565b611e2860c0830184611d9a565b98975050505050505050565b611e3d81611d90565b8114611e4857600080fd5b50565b600081359050611e5a81611e34565b92915050565b600067ffffffffffffffff821115611e7b57611e7a611bd2565b5b602082029050602081019050919050565b600080fd5b6000611ea4611e9f84611e60565b611c32565b90508083825260208201905060208402830185811115611ec757611ec6611e8c565b5b835b81811015611f0e57803567ffffffffffffffff811115611eec57611eeb611bc8565b5b808601611ef98982611ccf565b85526020850194505050602081019050611ec9565b5050509392505050565b600082601f830112611f2d57611f2c611bc8565b5b8135611f3d848260208601611e91565b91505092915050565b600080600080600080600080610100898b031215611f6757611f66611bbe565b5b600089013567ffffffffffffffff811115611f8557611f84611bc3565b5b611f918b828c01611ccf565b9850506020611fa28b828c01611e4b565b975050604089013567ffffffffffffffff811115611fc357611fc2611bc3565b5b611fcf8b828c01611ccf565b965050606089013567ffffffffffffffff811115611ff057611fef611bc3565b5b611ffc8b828c01611ccf565b955050608089013567ffffffffffffffff81111561201d5761201c611bc3565b5b6120298b828c01611ccf565b94505060a089013567ffffffffffffffff81111561204a57612049611bc3565b5b6120568b828c01611f18565b93505060c06120678b828c01611e4b565b92505060e06120788b828c01611e4b565b9150509295985092959890939650565b60008115159050919050565b61209d81612088565b82525050565b60006020820190506120b86000830184612094565b92915050565b60006020820190506120d36000830184611d9a565b92915050565b7f4e487b7100000000000000000000000000000000000000000000000000000000600052602260045260246000fd5b6000600282049050600182168061212057607f821691505b60208210811415612134576121336120d9565b5b50919050565b600081905092915050565b600061215082611a63565b61215a818561213a565b935061216a818560208601611a7f565b80840191505092915050565b60006121828284612145565b915081905092915050565b60008190508160005260206000209050919050565b600081546121af81612108565b6121b9818661213a565b945060018216600081146121d457600181146121e557612218565b60ff19831686528186019350612218565b6121ee8561218d565b60005b83811015612210578154818901526001820191506020810190506121f1565b838801955050505b50505092915050565b600061222d82846121a2565b91508190509291505056fea2646970667358221220b7189c628cabda371e4132b62b7030d8bb64d85708efe7c5d53c05775f7125d064736f6c634300080a0033",
  "immutableReferences": {},
  "source": "// SPDX-License-Identifier: MIT\r\npragma solidity ^0.8.10;\r\n\r\ncontract DonorContract {\r\n\r\n    struct pledged\r\n    {\r\n        string fullname;\r\n        uint age;\r\n        string gender;\r\n        string medical_id;\r\n        string blood_type;\r\n        string[] organ;\r\n        uint weight;\r\n        uint height;\r\n    }\r\n\r\n    struct donor\r\n    {\r\n        string fullname;\r\n        uint age;\r\n        string gender;\r\n        string medical_id;\r\n        string blood_type;\r\n        string[] organ;\r\n        uint weight;\r\n        uint height;\r\n    }\r\n\r\n    struct patient\r\n    {\r\n        string fullname;\r\n        uint age;\r\n        string gender;\r\n        string medical_id;\r\n        string blood_type;\r\n        string[] organ;\r\n        uint weight;\r\n        uint height;\r\n    }\r\n    mapping ( string =>pledged ) pledgedMap;\r\n    mapping ( string =>donor ) donorMap;\r\n    mapping ( string =>patient) patientMap;\r\n\r\n    string[] PledgedArray;\r\n    string[] DonorsArray;\r\n    string[] PatientsArray;\r\n\r\n    function setPledge(string memory _fullname, uint _age, string memory _gender, string memory _medical_id,\r\n                       string memory _blood_type, string[] memory _organ, uint _weight, uint _height)\r\n    public\r\n    {\r\n        require ( keccak256(abi.encodePacked((pledgedMap[_medical_id].medical_id))) != keccak256(abi.encodePacked(_medical_id)));\r\n        pledgedMap[_medical_id].fullname = _fullname;\r\n        pledgedMap[_medical_id].age = _age;\r\n        pledgedMap[_medical_id].gender = _gender;\r\n        pledgedMap[_medical_id].medical_id = _medical_id;\r\n        pledgedMap[_medical_id].blood_type = _blood_type;\r\n        pledgedMap[_medical_id].organ = _organ;\r\n        pledgedMap[_medical_id].weight = _weight;\r\n        pledgedMap[_medical_id].height = _height;\r\n\r\n        PledgedArray.push(_medical_id);\r\n    }\r\n\r\n    function setDonors(string memory _fullname, uint _age, string memory _gender, string memory _medical_id,\r\n                       string memory _blood_type, string[] memory _organ, uint _weight, uint _height)\r\n    public\r\n    {\r\n        require ( keccak256(abi.encodePacked((donorMap[_medical_id].medical_id))) != keccak256(abi.encodePacked(_medical_id)));\r\n        donorMap[_medical_id].fullname = _fullname;\r\n        donorMap[_medical_id].age = _age;\r\n        donorMap[_medical_id].gender = _gender;\r\n        donorMap[_medical_id].medical_id = _medical_id;\r\n        donorMap[_medical_id].blood_type = _blood_type;\r\n        donorMap[_medical_id].organ = _organ;\r\n        donorMap[_medical_id].weight = _weight;\r\n        donorMap[_medical_id].height = _height;\r\n\r\n        DonorsArray.push(_medical_id);\r\n    }\r\n\r\n    function setPatients(string memory _fullname, uint _age, string memory _gender, string memory _medical_id,\r\n                       string memory _blood_type, string[] memory _organ, uint _weight, uint _height)\r\n    public\r\n    {\r\n        require ( keccak256(abi.encodePacked((donorMap[_medical_id].medical_id))) != keccak256(abi.encodePacked(_medical_id)));\r\n        patientMap[_medical_id].fullname = _fullname;\r\n        patientMap[_medical_id].age = _age;\r\n        patientMap[_medical_id].gender = _gender;\r\n        patientMap[_medical_id].medical_id = _medical_id;\r\n        patientMap[_medical_id].blood_type = _blood_type;\r\n        patientMap[_medical_id].organ = _organ;\r\n        patientMap[_medical_id].weight = _weight;\r\n        patientMap[_medical_id].height = _height;\r\n\r\n        PatientsArray.push(_medical_id);\r\n    }\r\n\r\n    function getPledge(string memory _medical_id) view public returns(string memory, uint, string memory, string memory, string[] memory, uint, uint)\r\n    {\r\n        return\r\n        (\r\n            pledgedMap[_medical_id].fullname,\r\n            pledgedMap[_medical_id].age,\r\n            pledgedMap[_medical_id].gender,\r\n            pledgedMap[_medical_id].blood_type,\r\n            pledgedMap[_medical_id].organ,\r\n            pledgedMap[_medical_id].weight,\r\n            pledgedMap[_medical_id].height\r\n        );\r\n    }\r\n\r\n    function getDonor(string memory _medical_id) view public returns(string memory, uint, string memory, string memory, string[] memory, uint, uint)\r\n    {\r\n        return\r\n        (\r\n            donorMap[_medical_id].fullname,\r\n            donorMap[_medical_id].age,\r\n            donorMap[_medical_id].gender,\r\n            donorMap[_medical_id].blood_type,\r\n            donorMap[_medical_id].organ,\r\n            donorMap[_medical_id].weight,\r\n            donorMap[_medical_id].height\r\n        );\r\n    }\r\n\r\n    function getPatient(string memory _medical_id) view public returns(string memory, uint, string memory, string memory, string[] memory, uint, uint)\r\n    {\r\n        return\r\n        (\r\n            patientMap[_medical_id].fullname,\r\n            patientMap[_medical_id].age,\r\n            patientMap[_medical_id].gender,\r\n            patientMap[_medical_id].blood_type,\r\n            patientMap[_medical_id].organ,\r\n            patientMap[_medical_id].weight,\r\n            patientMap[_medical_id].height\r\n        );\r\n    }\r\n\r\n    function validatePledge(string memory _medical_id) view public returns(bool)\r\n    {\r\n\r\n     if (keccak256(abi.encodePacked((pledgedMap[_medical_id].medical_id))) == keccak256(abi.encodePacked(_medical_id)))\r\n        return true;\r\n     else return false;\r\n\r\n    }\r\n\r\n    function validateDonor(string memory _medical_id) view public returns(bool)\r\n    {\r\n\r\n     if (keccak256(abi.encodePacked((donorMap[_medical_id].medical_id))) == keccak256(abi.encodePacked(_medical_id)))\r\n        return true;\r\n     else return false;\r\n\r\n    }\r\n\r\n    function validatePatient(string memory _medical_id) view public returns(bool)\r\n    {\r\n\r\n     if (keccak256(abi.encodePacked((patientMap[_medical_id].medical_id))) == keccak256(abi.encodePacked(_medical_id)))\r\n        return true;\r\n     else return false;\r\n\r\n    }\r\n\r\n    function getAllPledgeIDs() view public returns(string[] memory)\r\n    {\r\n        return PledgedArray;\r\n    }\r\n\r\n    function getAllDonorIDs() view public returns(string[] memory)\r\n    {\r\n        return DonorsArray;\r\n    }\r\n\r\n    function getAllPatientIDs() view public returns(string[] memory)\r\n    {\r\n        return PatientsArray;\r\n    }\r\n\r\n    function getCountOfPledges() view public returns (uint)\r\n    {\r\n        return PledgedArray.length;\r\n    }\r\n\r\n    function getCountOfDonors() view public returns (uint)\r\n    {\r\n        return DonorsArray.length;\r\n    }\r\n\r\n    function getCountOfPatients() view public returns (uint)\r\n    {\r\n        return PatientsArray.length;\r\n    }\r\n\r\n}",
  "sourcePath": "D:\\Donation\\organ\\contracts\\DonorContract.sol",
  "compiler": {
    "name": "solc",
    "version": "0.8.10+commit.fc410830.Emscripten.clang"
  },
  "schemaVersion": "3.4.13",
  "updatedAt": "2023-04-13T20:09:45.508Z",
  "networkType": "ethereum",
  "devdoc": {
    "kind": "dev",
    "methods": {},
    "version": 1
  },
  "userdoc": {
    "kind": "user",
    "methods": {},
    "version": 1
  }
}